{
  "contractName": "ProductRating",
  "abi": [
    {
      "anonymous": false,
      "inputs": [
        {
          "indexed": false,
          "internalType": "uint256",
          "name": "productId",
          "type": "uint256"
        },
        {
          "indexed": false,
          "internalType": "uint256",
          "name": "userId",
          "type": "uint256"
        },
        {
          "indexed": false,
          "internalType": "uint256",
          "name": "rating",
          "type": "uint256"
        },
        {
          "indexed": false,
          "internalType": "string",
          "name": "review",
          "type": "string"
        }
      ],
      "name": "RatingAdded",
      "type": "event"
    },
    {
      "inputs": [
        {
          "internalType": "uint256",
          "name": "",
          "type": "uint256"
        },
        {
          "internalType": "uint256",
          "name": "",
          "type": "uint256"
        }
      ],
      "name": "productRatings",
      "outputs": [
        {
          "internalType": "uint256",
          "name": "productId",
          "type": "uint256"
        },
        {
          "internalType": "uint256",
          "name": "userId",
          "type": "uint256"
        },
        {
          "internalType": "uint256",
          "name": "rating",
          "type": "uint256"
        },
        {
          "internalType": "string",
          "name": "review",
          "type": "string"
        }
      ],
      "stateMutability": "view",
      "type": "function",
      "constant": true
    },
    {
      "inputs": [
        {
          "internalType": "uint256",
          "name": "_productId",
          "type": "uint256"
        },
        {
          "internalType": "uint256",
          "name": "_userId",
          "type": "uint256"
        },
        {
          "internalType": "uint256",
          "name": "_rating",
          "type": "uint256"
        },
        {
          "internalType": "string",
          "name": "_review",
          "type": "string"
        }
      ],
      "name": "addRating",
      "outputs": [],
      "stateMutability": "nonpayable",
      "type": "function"
    },
    {
      "inputs": [
        {
          "internalType": "uint256",
          "name": "_productId",
          "type": "uint256"
        }
      ],
      "name": "getRatings",
      "outputs": [
        {
          "components": [
            {
              "internalType": "uint256",
              "name": "productId",
              "type": "uint256"
            },
            {
              "internalType": "uint256",
              "name": "userId",
              "type": "uint256"
            },
            {
              "internalType": "uint256",
              "name": "rating",
              "type": "uint256"
            },
            {
              "internalType": "string",
              "name": "review",
              "type": "string"
            }
          ],
          "internalType": "struct ProductRating.Rating[]",
          "name": "",
          "type": "tuple[]"
        }
      ],
      "stateMutability": "view",
      "type": "function",
      "constant": true
    },
    {
      "inputs": [
        {
          "internalType": "uint256",
          "name": "_productId",
          "type": "uint256"
        }
      ],
      "name": "getAverageRating",
      "outputs": [
        {
          "internalType": "uint256",
          "name": "",
          "type": "uint256"
        }
      ],
      "stateMutability": "view",
      "type": "function",
      "constant": true
    }
  ],
  "bytecode": "0x608060405234801561000f575f80fd5b50610f078061001d5f395ff3fe608060405234801561000f575f80fd5b506004361061004a575f3560e01c806317b7e03e1461004e5780638601fd461461007e578063d18e2509146100b1578063d6e91877146100e1575b5f80fd5b610068600480360381019061006391906105cc565b6100fd565b6040516100759190610606565b60405180910390f35b6100986004803603810190610093919061061f565b610285565b6040516100a894939291906106e7565b60405180910390f35b6100cb60048036038101906100c691906105cc565b610350565b6040516100d891906108a3565b60405180910390f35b6100fb60048036038101906100f691906109ef565b610469565b005b5f805f808481526020019081526020015f20805480602002602001604051908101604052809291908181526020015f905b8282101561020b578382905f5260205f2090600402016040518060800160405290815f8201548152602001600182015481526020016002820154815260200160038201805461017c90610a9c565b80601f01602080910402602001604051908101604052809291908181526020018280546101a890610a9c565b80156101f35780601f106101ca576101008083540402835291602001916101f3565b820191905f5260205f20905b8154815290600101906020018083116101d657829003601f168201915b5050505050815250508152602001906001019061012e565b5050505090505f815103610222575f915050610280565b5f805b825181101561026d5782818151811061024157610240610acc565b5b602002602001015160400151826102589190610b26565b9150808061026590610b59565b915050610225565b5081518161027b9190610bcd565b925050505b919050565b5f602052815f5260405f20818154811061029d575f80fd5b905f5260205f2090600402015f9150915050805f0154908060010154908060020154908060030180546102cf90610a9c565b80601f01602080910402602001604051908101604052809291908181526020018280546102fb90610a9c565b80156103465780601f1061031d57610100808354040283529160200191610346565b820191905f5260205f20905b81548152906001019060200180831161032957829003601f168201915b5050505050905084565b60605f808381526020019081526020015f20805480602002602001604051908101604052809291908181526020015f905b8282101561045e578382905f5260205f2090600402016040518060800160405290815f820154815260200160018201548152602001600282015481526020016003820180546103cf90610a9c565b80601f01602080910402602001604051908101604052809291908181526020018280546103fb90610a9c565b80156104465780601f1061041d57610100808354040283529160200191610446565b820191905f5260205f20905b81548152906001019060200180831161042957829003601f168201915b50505050508152505081526020019060010190610381565b505050509050919050565b6001821015801561047b575060058211155b6104ba576040517f08c379a00000000000000000000000000000000000000000000000000000000081526004016104b190610c47565b60405180910390fd5b5f808581526020019081526020015f20604051806080016040528086815260200185815260200184815260200183815250908060018154018082558091505060019003905f5260205f2090600402015f909190919091505f820151815f0155602082015181600101556040820151816002015560608201518160030190816105429190610e02565b5050507f68c4668804dc4bbc5b2cc1ba0f0f966d12dda6e4707b7c487c4734b0ea647aaf8484848460405161057a94939291906106e7565b60405180910390a150505050565b5f604051905090565b5f80fd5b5f80fd5b5f819050919050565b6105ab81610599565b81146105b5575f80fd5b50565b5f813590506105c6816105a2565b92915050565b5f602082840312156105e1576105e0610591565b5b5f6105ee848285016105b8565b91505092915050565b61060081610599565b82525050565b5f6020820190506106195f8301846105f7565b92915050565b5f806040838503121561063557610634610591565b5b5f610642858286016105b8565b9250506020610653858286016105b8565b9150509250929050565b5f81519050919050565b5f82825260208201905092915050565b5f5b83811015610694578082015181840152602081019050610679565b5f8484015250505050565b5f601f19601f8301169050919050565b5f6106b98261065d565b6106c38185610667565b93506106d3818560208601610677565b6106dc8161069f565b840191505092915050565b5f6080820190506106fa5f8301876105f7565b61070760208301866105f7565b61071460408301856105f7565b818103606083015261072681846106af565b905095945050505050565b5f81519050919050565b5f82825260208201905092915050565b5f819050602082019050919050565b61076381610599565b82525050565b5f82825260208201905092915050565b5f6107838261065d565b61078d8185610769565b935061079d818560208601610677565b6107a68161069f565b840191505092915050565b5f608083015f8301516107c65f86018261075a565b5060208301516107d9602086018261075a565b5060408301516107ec604086018261075a565b50606083015184820360608601526108048282610779565b9150508091505092915050565b5f61081c83836107b1565b905092915050565b5f602082019050919050565b5f61083a82610731565b610844818561073b565b9350836020820285016108568561074b565b805f5b8581101561089157848403895281516108728582610811565b945061087d83610824565b925060208a01995050600181019050610859565b50829750879550505050505092915050565b5f6020820190508181035f8301526108bb8184610830565b905092915050565b5f80fd5b5f80fd5b7f4e487b71000000000000000000000000000000000000000000000000000000005f52604160045260245ffd5b6109018261069f565b810181811067ffffffffffffffff821117156109205761091f6108cb565b5b80604052505050565b5f610932610588565b905061093e82826108f8565b919050565b5f67ffffffffffffffff82111561095d5761095c6108cb565b5b6109668261069f565b9050602081019050919050565b828183375f83830152505050565b5f61099361098e84610943565b610929565b9050828152602081018484840111156109af576109ae6108c7565b5b6109ba848285610973565b509392505050565b5f82601f8301126109d6576109d56108c3565b5b81356109e6848260208601610981565b91505092915050565b5f805f8060808587031215610a0757610a06610591565b5b5f610a14878288016105b8565b9450506020610a25878288016105b8565b9350506040610a36878288016105b8565b925050606085013567ffffffffffffffff811115610a5757610a56610595565b5b610a63878288016109c2565b91505092959194509250565b7f4e487b71000000000000000000000000000000000000000000000000000000005f52602260045260245ffd5b5f6002820490506001821680610ab357607f821691505b602082108103610ac657610ac5610a6f565b5b50919050565b7f4e487b71000000000000000000000000000000000000000000000000000000005f52603260045260245ffd5b7f4e487b71000000000000000000000000000000000000000000000000000000005f52601160045260245ffd5b5f610b3082610599565b9150610b3b83610599565b9250828201905080821115610b5357610b52610af9565b5b92915050565b5f610b6382610599565b91507fffffffffffffffffffffffffffffffffffffffffffffffffffffffffffffffff8203610b9557610b94610af9565b5b600182019050919050565b7f4e487b71000000000000000000000000000000000000000000000000000000005f52601260045260245ffd5b5f610bd782610599565b9150610be283610599565b925082610bf257610bf1610ba0565b5b828204905092915050565b7f526174696e67206d757374206265206265747765656e203120616e64203500005f82015250565b5f610c31601e83610667565b9150610c3c82610bfd565b602082019050919050565b5f6020820190508181035f830152610c5e81610c25565b9050919050565b5f819050815f5260205f209050919050565b5f6020601f8301049050919050565b5f82821b905092915050565b5f60088302610cc17fffffffffffffffffffffffffffffffffffffffffffffffffffffffffffffffff82610c86565b610ccb8683610c86565b95508019841693508086168417925050509392505050565b5f819050919050565b5f610d06610d01610cfc84610599565b610ce3565b610599565b9050919050565b5f819050919050565b610d1f83610cec565b610d33610d2b82610d0d565b848454610c92565b825550505050565b5f90565b610d47610d3b565b610d52818484610d16565b505050565b5b81811015610d7557610d6a5f82610d3f565b600181019050610d58565b5050565b601f821115610dba57610d8b81610c65565b610d9484610c77565b81016020851015610da3578190505b610db7610daf85610c77565b830182610d57565b50505b505050565b5f82821c905092915050565b5f610dda5f1984600802610dbf565b1980831691505092915050565b5f610df28383610dcb565b9150826002028217905092915050565b610e0b8261065d565b67ffffffffffffffff811115610e2457610e236108cb565b5b610e2e8254610a9c565b610e39828285610d79565b5f60209050601f831160018114610e6a575f8415610e58578287015190505b610e628582610de7565b865550610ec9565b601f198416610e7886610c65565b5f5b82811015610e9f57848901518255600182019150602085019450602081019050610e7a565b86831015610ebc5784890151610eb8601f891682610dcb565b8355505b6001600288020188555050505b50505050505056fea264697066735822122049fdfad6255e9ef0fe1135074beba89210acedf6a9dfb68b49bc0f9035c46de564736f6c63430008150033",
  "immutableReferences": {},
  "source": "// SPDX-License-Identifier: MIT\r\npragma solidity ^0.8.0;\r\n\r\ncontract ProductRating {\r\n    struct Rating {\r\n        uint productId;\r\n        uint userId;\r\n        uint rating;\r\n        string review;\r\n    }\r\n\r\n    mapping(uint => Rating[]) public productRatings;\r\n\r\n    event RatingAdded(uint productId, uint userId, uint rating, string review);\r\n\r\n    function addRating(uint _productId, uint _userId, uint _rating, string memory _review) public {\r\n        require(_rating >= 1 && _rating <= 5, \"Rating must be between 1 and 5\");\r\n\r\n        productRatings[_productId].push(Rating(_productId, _userId, _rating, _review));\r\n        emit RatingAdded(_productId, _userId, _rating, _review);\r\n    }\r\n\r\n    function getRatings(uint _productId) public view returns (Rating[] memory) {\r\n        return productRatings[_productId];\r\n    }\r\n\r\n    function getAverageRating(uint _productId) public view returns (uint) {\r\n        Rating[] memory ratings = productRatings[_productId];\r\n        if (ratings.length == 0) {\r\n            return 0;\r\n        }\r\n        uint sum = 0;\r\n        for (uint i = 0; i < ratings.length; i++) {\r\n            sum += ratings[i].rating;\r\n        }\r\n        return sum / ratings.length;\r\n    }\r\n}",
  "sourcePath": "D:\\blockchainproject\\product-rating\\contracts\\ProductRating.sol",
  "compiler": {
    "name": "solc",
    "version": "0.8.21+commit.d9974bed.Emscripten.clang"
  },
  "schemaVersion": "3.4.16",
  "updatedAt": "2025-05-07T08:56:57.874Z",
  "networkType": "ethereum",
  "devdoc": {
    "kind": "dev",
    "methods": {},
    "version": 1
  },
  "userdoc": {
    "kind": "user",
    "methods": {},
    "version": 1
  }
}